:020000040200F8
:1000000088110022AD200002851F0002A9200002F5
:10001000A9200002A9200002A9200002A9200002B4
:10002000000000000000000000000000A920000205
:10003000A920000200000000A9200002A92000025F
:100040002D1400029D130002BD14000209150002C8
:100050002D1400029D130002BD14000209150002B8
:100060002D1400029D130002BD14000209150002A8
:100070000000000000000000000000000000000080
:100080000000000000000000000000000000000070
:100090000000000000000000000000000000000060
:1000A0000000000000000000000000000000000050
:1000B0000000000000000000000000000000000040
:1000C0000000000000000000000000000000000030
:1000D0000000000000000000000000000000000020
:1000E0000000000000000000000000000000000010
:1000F0000000000000000000000000000000000000
:1001000000000000000000000000000000000000EF
:1001100000000000000000000000000000000000DF
:1001200000000000000000000000000000000000CF
:1001300000000000000000000000000000000000BF
:1001400000000000000000000000000000000000AF
:10015000000000000000000000000000000000009F
:10016000000000000000000000000000000000008F
:10017000000000000000000000000000000000007F
:10018000000000000000000000000000000000006F
:10019000000000000000000000000000000000005F
:1001A000000000000000000000000000000000004F
:1001B000000000000000000000000000000000003F
:1001C0000348044B834202D0034B03B118477047E6
:1001D000100100221001002200000000064B074918
:1001E000C91A891048BF0131491003D0044B0BB123
:1001F00001481847704700BF10010022100100227B
:100200000000000010B5064C237843B9FFF7D8FF73
:10021000044B13B10448AFF300800123237010BDD9
:100220004001002200000000882C000208B5054BA8
:100230001BB105490548AFF30080BDE80840FFF752
:10024000CDBF00BF0000000044010022882C000246
:100250002DE9F041D0E902850446A8EB0507406886
:1002600097422844154408D80E463A46A5EB08059F
:1002700002F002F82A466068F11901F0FDFFBFF3B1
:100280005F8FE560BDE8F0812DE9F8434FF000098C
:10029000064688461746D0E902243369151B9C425E
:1002A00003F1FF3125BF03F1FF339B180B1B1B1B11
:1002B000BD4228BF3D469D4228BF1D46706841464D
:1002C0002A46204401F0D8FFB2682C44A24208BF5D
:1002D0000024A944A8447F1BBFF35F8FF460002F64
:1002E000DBD14846BDE8F883F8B5154CA8220021BB
:1002F000204601F0B9FF4FF480660023032010224E
:100300001049114F114D20616061A161E7612662C2
:10031000A3626362E36221666566A2662367E366A1
:100320006367BFF35F8F0A4B42F001E01846C21AC1
:1003300013F9011DA1540FF007C0BFF35F8FF8BD83
:10034000700500220C2300027001002260010022CF
:100350002028000270B51D4D441C00EB400005EB49
:10036000C00304EB440405EBC400DC6A8C46012C9A
:10037000164612D0022C0CD0FCB99A6A596A8A42ED
:100380009CBF1B6AD218013A511A8E4218D92046D6
:1003900070BDBDE87040FFF777BF9A6A5C6AA24201
:1003A0009CBF1B6AD218013A141BB44228BF3446C2
:1003B0002246FFF74DFF204670BD0024204670BD49
:1003C00032466146FFF744FF3446E0E770050022FD
:1003D000F8B50B4B04461B780D46532B164601D03F
:1003E000FFF782FFEFF311874FF0200181F31188AF
:1003F000324629462046FFF7ADFF87F31188F8BD46
:1004000070050022D0E9013210B50446501C984214
:1004100007D8236899540246E16863680131C4E94A
:1004200002019A4200D010BD21682069FFF7D0FF79
:10043000A368984215BF4FF0FF330023E360A36029
:1004400010BD00BF2DE9F84F91428A46DDE90A84CC
:10045000154683461E466AD30B460127B3FBF5F3C8
:100460009D4207F10107F9D9B74238BF374614F06A
:10047000010902D1B8F1000F40D1DBF80C30002B9C
:100480002CDB0124002E14BF3346234601E005FB7C
:1004900004F4013BFBD1BAFBF4F39D4205D805FB04
:1004A00004F4BAFBF4F39D42F9D9224E06E0AC42C3
:1004B000B4FBF5F30CD31C46BAFBF3F3F1565846E4
:1004C00004FB13AAFFF79EFFDBF80C30002BEEDADB
:1004D000B9F1000F02D0B8F1000F09D1BDE8F88FD3
:1004E00020215846FFF78EFFDBF80C30002BF5DBA0
:1004F000B84508F1FF38F3D8BDE8F88FA30711D449
:1005000020240CE021465846FFF77CFFDBF80C3036
:1005100008F1FF38002BE1DBB8F1000FAFD0B84590
:10052000F0D8AAE7002E0CBF30242024F7E70127DB
:100530009AE700BF282800022DE9F04F002340254C
:100540009BB00DF1280A81460C461746CDE90553AC
:10055000CDE90730CDF810A006E004A8FFF752FF60
:10056000079B002BC0F2AD8014F9011B002900F09D
:10057000A0802529F1D10026234613F9012BA2F1F1
:1005800023010D2908D8DFE801F07F0707070707D7
:1005900007077B0783070777A2F13001C9B2092952
:1005A0004FF000050FD805EB850502EB450593F9E3
:1005B00000201C46A2F13001C9B20929A5F130057D
:1005C00003F10103EFD92E2A00F0FE804FF0000B5B
:1005D00094F9001021F0040068281C465CD02529FD
:1005E000BBD05839CBB2202BBAD82029B8D801A318
:1005F00053F821F0CB0600026105000261050002FC
:10060000610500026105000261050002610500024A
:10061000610500026105000261050002610500023A
:10062000B50700024D0700026105000261050002E6
:10063000610500026105000261050002610500021A
:10064000610500026105000261050002610500020A
:100650006105000215070002610500026105000244
:10066000E70600026105000233070002610500028F
:1006700061050002CB0600021C4646F002067BE73D
:100680001C4646F0040677E71C4646F0080673E76A
:100690001C4646F001066FE714F9011B21F0040324
:1006A000682B9CD114F9011B21F00403682B96D10F
:1006B000F2E7079B002B04DD069C002C40F09D8098
:1006C000234418461BB0BDE8F08F102238685B4603
:1006D00001680430CDE9005638600DEB0200FFF7E9
:1006E000B1FE079B3DE73B68784A191D39601D68DC
:1006F000002D08BF154615F9011B00293FF430AF46
:1007000004A8FFF77FFE079B002BF4DA18461BB006
:10071000BDE8F08F3A680823116804323A6000207F
:100720001022CDE900300DEB0200FFF78BFE079B96
:1007300017E738685B4601680430CDE900560A22A5
:10074000386004A8FFF77EFE079B0AE73B684FF07E
:1007500001081A6804333B6082EAE273A3EBE27398
:10076000092B039209DD5A481946A0FB03C36329EC
:1007700008F101084FEAD303F6DCD84538BFD84664
:10078000002D43D1079900250B46002999DB039BD7
:10079000002B65DB73076FD406F00303022B74D0C4
:1007A0005B460A22CDE90056039904A8FFF74AFEEA
:1007B000079BD6E63B6804A81A1D93F900103A601F
:1007C000FFF720FE079BCCE694F90110A1F130025F
:1007D000D2B2092A55D81C464FF0000B0BEB8B0206
:1007E00001EB420214F9011FA2F1300BA1F1300319
:1007F000DBB2092BF2D9631CECE62246514648468F
:100800000393FFF7E5FD039B23445AE7039A06F0A1
:100810000203002A1ADB720718D4002B4CD0BBF15C
:10082000000F10D0F0070CD50DE0202104A8FFF731
:10083000E9FD0799013D00290B46FFF642AF002D67
:10084000A3D0A845F1D307990B469EE7013D13B10C
:10085000BBF1000FF7D0F207F5D4002DF1D191E7ED
:100860005B422D2104A80393FFF7CCFD07990029D3
:100870000B46FFF626AF8FE72B2104A8FFF7C2FD3A
:10088000F4E74FF0000B0133A4E6BBF1000F87D172
:10089000002D85D0454516D9302104A8FFF7B2FDBB
:1008A0000799013D00290B46FFF60BAF002DF1D152
:1008B0000029FFF606AF73E7F107C2D5079B002BAF
:1008C000BFF66EAFFDE60B46F2E700BF182300024D
:1008D000CDCCCCCC0EB400B582B003AB53F8041B26
:1008E00001AA0193FFF728FE02B05DF804EB03B004
:1008F000704700BF30B5002485B003A8039401F011
:10090000EFFA58492046FFF7E5FF57492046FFF721
:10091000E1FF564A56492046FFF7DCFF9DF80D508F
:100920009DF80E309DF80F20524920460095FFF7A4
:10093000D1FF4C492046FFF7CDFF4F492046FFF736
:10094000C9FF4E492046FFF7C5FF4D492046FFF736
:10095000C1FF4C492046FFF7BDFF00F0B1F8D0B908
:1009600000F0CAF8044630BB00F0F4F80446002852
:1009700032D100F087F9044600283ED1424800F009
:100980009DF9044600284AD100F0D6F90446002813
:1009900058D105B030BD05463C492046FFF79AFFC7
:1009A0002A4620463A49FFF795FF00BE00F0A4F81A
:1009B00004460028D8D037490020FFF78BFF00F00D
:1009C000B3F8224632490020FFF784FF00BE00F052
:1009D000C1F804460028CCD02F490020FFF77AFF49
:1009E00000F0A2F822462A490020FFF773FF00BE5C
:1009F00000F048F904460028C0D028490020FFF73D
:100A000069FF00F091F8224621490020FFF762FFBC
:100A100000BE1D4800F052F904460028B4D0204919
:100A20000020FFF757FF00F07FF800F0DFF92246C3
:100A300017490020FFF74EFF00BE00F07DF9044685
:100A40000028A6D017490020FFF744FF00F06CF8FB
:100A500000F0DAF822460E490020FFF73BFF00BE07
:100A600005B030BD2023000268230002B02300023D
:100A7000B4230002F823000240240002C82400022C
:100A80000C250002442500022426000280250002D5
:100A9000A4250002C4250002E42500020426000269
:100AA0003426000264260002022800D07047024962
:100AB000024800F03BBE00BF902900022807002238
:100AC00010B50849084800F0BFFE044608B92046A2
:100AD00010BD064B064A07490020FFF7FBFE2046E3
:100AE00010BD00BFCC28000230070022842600027F
:100AF00058280002AC26000210B5074800F032FE6C
:100B0000044608B9204610BD044B054A054900209B
:100B1000FFF7E0FE204610BD30070022C826000285
:100B20004C280002AC26000210B5064801F012F86D
:100B300000B910BD0020BDE81040034B034A044932
:100B4000FFF7C8BE30070022EC260002382800025A
:100B5000AC26000210B50849084800F09DFA04468A
:100B600008B9204610BD064B064A07490020FFF78A
:100B7000B1FE204610BD00BF282900025007002208
:100B80001027000288280002AC26000270B5054636
:100B900001F07FFB02460026144C29461448D2B2CD
:100BA000267000F0C1F90546A8B9124B04E0013BDC
:100BB00019D02278782A04D02278022AF7D1284640
:100BC00070BD4FF496750C4B0C4A0D490020FFF791
:100BD00081FE284670BD30460A4B084A0849FFF797
:100BE00079FE284670BD1425E9E700BF18060022EB
:100BF00050070022FCFF0300602700027428000257
:100C0000AC2600023827000210B5064800F0C8F9EB
:100C100000B910BD0020BDE81040034B034A044951
:100C2000FFF758BE500700228827000268280002FC
:100C3000AC2600020F4903790F4A0B701178042982
:100C400004BF00211170042B00D0704783680D2B66
:100C500009D010B41078094C411CC9B2117023544A
:100C60005DF8044B704700200121054B107019708E
:100C7000704700BF180600221A0600221C06002238
:100C80001906002210B50849084800F005FA044684
:100C900008B9204610BD064B064A07490020FFF759
:100CA00019FE204610BD00BF5C290002800700220B
:100CB000B4270002BC280002AC26000270B505462D
:100CC00001F0E7FA02460026144C29461448D2B235
:100CD000267000F029F90546A8B9124B04E0013B43
:100CE00019D02278782A04D02278022AF7D128460F
:100CF00070BD4FF496750C4B0C4A0D490020FFF760
:100D0000E9FD284670BD30460A4B084A0849FFF7FE
:100D1000E1FD284670BD1425E9E700BF200600224A
:100D200080070022FCFF030060270002A8280002C1
:100D3000AC260002382700022DE9F041224C234D59
:100D4000234FDFF8A48000262378002BFCD0284610
:100D5000267001F09EFA0028F6D03846FFF7AEFF65
:100D60000646A0B92846FFF711FF06460028EAD03C
:100D700041460020FFF7AEFD164800F011F9A8B972
:100D8000324615490020FFF7A5FD00BEDBE74146CE
:100D90000020FFF79FFD0F4800F002F968B93246C6
:100DA0000D490020FFF796FD00BEDBE70B4B0C4A18
:100DB0000C490020FFF78EFDE2E7084B084A09497D
:100DC0000020FFF787FDEAE721060022280600221F
:100DD0000000002280070022A425000288270002CC
:100DE00098280002AC260002DC27000210B5064855
:100DF00000F0D6F800B910BD0020BDE81040034B4C
:100E0000034A0449FFF766BD8007002288270002D5
:100E100098280002AC2600020F4903790F4A0B7094
:100E20001178042904BF00211170042B00D07047F1
:100E300083680D2B09D010B41078094C411CC9B23D
:100E4000117023545DF8044B704700200121054BBD
:100E500010701970704700BF200600222206002281
:100E6000280600222106002208B5FFF743FD0020D6
:100E700008BD00BF30B40124164D530902F01F0C09
:100E8000203304FA0CF445F82340BFF34F8FBFF32F
:100E90006F8F114B02F5C65C53F82C4024F480345C
:100EA00043F82C4053F82C300901002AC9B207DB63
:100EB00015440A4B85F8001330BC43F822007047F4
:100EC000074B02F00F0423441976044B30BC43F85F
:100ED0002200704700E100E000600040F8070022B7
:100EE000FCEC00E0F0B5846A85B005460F469446F8
:100EF0006E46B4B194E80F0086E80F00EB69204617
:100F00001B7884F804C0EA6A2360A7606B6AE26019
:100F10009847AC6A1CB196E80F0084E80F0005B052
:100F2000F0BD3446EAE700BF58B351B34AB310B539
:100F30001A4B8646406898422BD19EF8023003F047
:100F40000303022B1FD0DEF8100020BBDEF8203098
:100F50009C6824F440149C609C6C6400FCD59C68E4
:100F600024F010049C6093F81CC01CF0100FFAD100
:100F70009C68CEF8102044F01014CEF80C109C6041
:100F800010BD0120704741EA0203DB07DBD50320D7
:100F900010BD072010BD082010BD00BF42494353BB
:100FA000002870D0F8B54268384B04469A4268D1A0
:100FB000026A936823F440139360936823F010034C
:100FC0009360137FC3F30015DB06FAD40121E369B4
:100FD0002F4A93F90730580903F01F03203001FA14
:100FE00003F342F82030BFF34F8FBFF36F8FE369F5
:100FF00093F90930580903F01F0301FA03F3203075
:1010000042F82030BFF34F8FBFF36F8F206A8368A1
:1010100023F480338360E36993F90530580903F0C2
:101020001F0301FA03F3203042F82030BFF34F8F43
:10103000BFF36F8FE36993F90B30580903F01F0377
:1010400001FA03F3203042F82030BFF34F8FBFF393
:101050006F8FEFF3108681F310884FF00043E7693C
:101060000C4A97F800C0506823FA0CF3034353600E
:101070005368962000F046FF86F310882846656086
:10108000F8BD0720F8BD0120704700BF4249435317
:1010900000E100E000302040002800F051812DE9FF
:1010A000F0410C46002900F04881CD69002D00F088
:1010B00044816B68002B00F04081B04B42680646CB
:1010C0009A4200F04A8140F21F230978CB4013F086
:1010D000010000F03F812B7B052B00F0338194F958
:1010E0000530002BC0F22A8194F90730002BC0F2A2
:1010F000258194F90930002BC0F2208194F90B204E
:10110000002AC0F21B81002701F5800101F556512C
:1011100037700902C6E907416169B3787162A16954
:101120003046C6E90A716178B94214BF0121022133
:1011300061F30103B370A17AFFF79CFE94F90520D7
:101140002179FFF797FE94F90720A179FFF792FE26
:1011500094F90920217AFFF78DFEEFF31087012122
:1011600081F310884FF000402278854BD0405A68B8
:1011700022EA00025A605B68962000F0C3FE87F303
:1011800010884FF48063E269306A5768836063783F
:10119000E17892F800C01B02890392F801E001F4A3
:1011A000804103F440730B434FEA0C68517B4FEAD4
:1011B000CE3E08F040781FFA8EFE490543EA080348
:1011C00001F4001143EA0E030B43ACF1020143F4B6
:1011D0008053012994F800E0A478436140F2C7806D
:1011E0003B680361117B01F0030141F03001002CE9
:1011F00040F0B58040F21F240027937824FA0EF4C3
:101200001B0703F080530B43E107C36048BF5D4BEE
:10121000876148BF4362937BD17B03F0010301F0F8
:101220001F0143EA01230021127C6D89564C02F014
:101230001F0243EA0243F26903633161B161358100
:10124000F1607161846692F90520504B02F5C65039
:1012500053F8204061F3104443F8204053F8200035
:10126000BFF35F8F012002F01F045209920002F1C8
:10127000604202F5614200FA04F4C2F88041146051
:10128000F26992F90B2002F5C65453F8245061F329
:10129000104543F8245053F82440BFF35F8F02F009
:1012A0001F045209920002F1604200FA04F402F5B0
:1012B0006142C2F880411460F26992F9072002F598
:1012C000C65453F8245061F3104543F8245053F8A2
:1012D0002440BFF35F8F02F01F045209920002F115
:1012E000604200FA04F402F56142C2F880411460E1
:1012F000F26992F9092002F5C65453F8245061F3BB
:10130000104543F8245053F82430BFF35F8F53093E
:101310009B0002F01F0203F16043904003F561431C
:10132000C3F8800118601A4B326A9360137FDB07A1
:10133000FCD5124B0020736000E00120BDE8F08175
:10134000012070474FF6FF736A899A427FF4C7AE57
:101350000320F3E740F27A50F0E70E20EEE7022C8C
:1013600014BF4FF440734FF48073194342E70949A7
:10137000BCF1020F084B18BF0B4632E742494353FA
:101380000030204000001F1F1000079D006000403B
:101390001104010004FF00FF24FF00FF30B4EFF34D
:1013A0000383103B1F4A5BB203F5C65152F821007C
:1013B00020F4803042F8210052F821201A4A52F8D5
:1013C0002300C3691B699BB103690BB130BC704733
:1013D000026A00219368446A23F4801343F40013E3
:1013E0009360C160002CF1D030BC8022FFF77ABD41
:1013F0000369026A002BECD08178C46801F0030510
:10140000022D08D02578157101F003029B1A1444AF
:10141000C0E90343D9E7258825F4DC45ADB2556022
:10142000F2E700BF00600040F807002210B582B06C
:10143000EFF30383103B1F4A5BB203F5C65152F82A
:10144000210020F4803042F8210052F821201A4A6D
:1014500052F82340A27802F00303022B236A0CBF48
:1014600019681978A3690CBFC1F30801C9B20191C9
:1014700043B9636AB3B10422204602B0BDE810400C
:10148000FFF730BD02F0030201A9606900F0F4FE2D
:10149000D4E90521A37803F003031A44C91AC4E967
:1014A000052109B102B010BD636A002BFAD00122F8
:1014B000E2E700BF00600040F807002210B5EFF33C
:1014C00003830F4A103B5CB252F82400D0E9082194
:1014D000936823F4401323F01003936019B10222A0
:1014E0000021FFF7FFFC074A04F5C65352F823100A
:1014F00021F4803142F8231052F8233010BD00BF90
:10150000F80700220060004038B5EFF303831D4A5E
:10151000103B5CB252F824008378056A03F00303A1
:10152000022B0CBF29682978AA6C08BFC1F30801F7
:10153000C2F30073C2F3006C4FEA031343EA4C1387
:10154000C2F3C06243EAC20C18BFC9B2DB066246EE
:1015500004D5AB6C1B0458BF4CF04002AB6E43F09B
:10156000C853AB66436A0BB1FFF7BCFC064A04F5EF
:10157000C65352F8231021F4803142F8231052F858
:10158000233038BDF8070022006000402DE9F84FF5
:101590000388DBB14FF0000A80464FF00109DFF805
:1015A000D4B00024314D4FEACA07D8F8043035F8DA
:1015B000022BD919898891420AD00134032CF4D125
:1015C000B8F800300AF1010A5345EAD8BDE8F88FAF
:1015D000DB5909FA04F603F0B853B3F1807F244BCA
:1015E000F6B293F84C2C12D0324230D104F12002E2
:1015F0001BF81230DB09E0D01BF81230012123F078
:101600008003C8200BF8123000F07CFCD5E7324292
:1016100010D004F120021BF81230DB09CDD11BF8E9
:101620001230012143F08003C8200BF8123000F083
:1016300069FCC2E7012000F00DFD0D4B012093F87D
:101640004C2C324383F84C2C00F0D4FCE1E7012011
:1016500000F000FD064B012093F84C2C22EA060214
:1016600083F84C2C00F0C6FCC0E700BF782C0002C9
:1016700000E0014000202040F8B50446FFF786FF57
:10168000EFF31082012383F31088254E33681BB9D2
:10169000402024490B75087533680133336082F3A9
:1016A0001088218849B3C9000839C90860681E4DEF
:1016B000013107E01B011344013945F8234000F1D3
:1016C00008001AD004688288E7034FEA1223D2B2D6
:1016D000F0D502EB031C55F82CE01B0124F48037F5
:1016E0002EF4803E1344013945F82CE000F1080047
:1016F00045F82C7045F82340E4D1EFF31082012324
:1017000083F31088336813B13368013B3360336867
:101710001BB9802003490B75087582F31088F8BD4A
:10172000F0070022000D40400008404098B191B100
:101730004A6808B503464AB1094A186890420CD075
:1017400008461A60FFF798FF002008BD0A88002AA3
:10175000F2D0012008BD012070470E2008BD00BF57
:1017600054524F5050B1064B02689A4204D1D0E90E
:10177000023200205A6070470720704701207047EE
:101780005450470030B48C6E01342AB1944203D9CE
:1017900030BC013A1A607047029D496B0078ED0732
:1017A00054BF01F01F01C1F30441032808D90909FE
:1017B00081F001016AB9A1B930BC02225A607047B8
:1017C00001F00C01A1F10401B1FA81F14909002AEB
:1017D000F1D0944201D80029EED130BC03225A60E6
:1017E0007047002CE8D0F8E7002800DA704710B402
:1017F00000F1604C124C0901124BC9B20CF5614C5E
:101800008CF8001300F5C65144F8202053F821202D
:1018100022F4803243F8212053F82130BFF35F8F48
:10182000012243099B0000F01F0003F1604303F510
:1018300061438240C3F880211A605DF8044B704711
:10184000F807002200600040002900F002812DE925
:10185000F04FCE690C4687B0002E00F0F6800746A8
:10186000002800F0F2800B7A072B00F0EE80092BA5
:1018700000F0EB800A2B00F2E8800A78032A00F2DD
:10188000EA80B14B0168994200F03B810123217C41
:101890008B40C360C3F30D00002800F02F81606906
:1018A000002800F0F68094F91220002AC0F244814A
:1018B000DBB2B3FA83F34FF000085B09A34A3B7431
:1018C000A3690A441202C7E9068378617C60BA60A2
:1018D000EFF31085012181F310884FF000499C4BF4
:1018E000207C1A6929FA00F022EA00021A611B69B9
:1018F000962000F007FB85F310884FF42543BD6860
:1019000061682B60C5F82C80C5F83C80C5F848801C
:1019100094F800A0237ABAF1030F4FEAC35301F100
:10192000FF3200F0BA80EB62B369C5F81090C5F8D9
:101930001490C5F81890C5F82480C5F82880EB618C
:10194000F369D6F838B02B627B68AA6603936A669F
:1019500000234FF0FF32CDE90423BAF1000F40F02D
:10196000D2804908013969650491A96501224FF0C7
:10197000030E5B46BBF1000F18D1317899B196F890
:1019800001C021784FEA0C13022943EA8C1300F0BE
:10199000D580032904D0BCF1000F0CBF062109211A
:1019A0000B4343F48073B178002956D10399D1F8E1
:1019B0001CC09CF83000C10703D5DCF828100139A1
:1019C000E964810703D5DCF82C1001392965002171
:1019D000A963C5F88810BBF1000F07D196F8211054
:1019E00096F82000490741EA40310B4396F8301041
:1019F000002914BF4FF4A0014FF4AA01BAF1010F5E
:101A0000296402D10021E96429656B63FB68C5F88C
:101A100030E02A63EB603A46617C94F91200FFF7EC
:101A2000E3FE3A4696F8221096F92400FFF7DCFE12
:101A300096F925003A4696F82310FFF7D5FE0020C8
:101A4000414B3B6007B0BDE8F08F012007B0BDE817
:101A5000F08F012070470520F8E796F8038094F88E
:101A600000C04FEA0811BCF1020F41EA881167D0AB
:101A7000BCF1030F06D0B8F1000F0CBF4FF0060CFD
:101A80004FF0090C41EA0C0143EA014343F0807333
:101A90008CE7012A7FF40CAF05E743F48033EB6257
:101AA000B369C5F81090C5F81490C5F81890C5F83A
:101AB0002480C5F82880EB61F369D6F838B02B6232
:101AC0004FF000097B68AA666A66CDF800804FF087
:101AD000FF3818460393294604ABE268CDE9048930
:101AE000FFF750FE049B6B65AB65059B1A0642EA47
:101AF000034242F0030E42F001023AE740F27A500C
:101B0000A4E70E20A2E7BAF1010F04D14FF0FF3392
:101B10006B65AB652AE7CDF8008004AB29460398D6
:101B2000E268FFF72FFE049BBAF1030F6B65AB650C
:101B300084BFEB652B66D8E70B2087E709212FE7E9
:101B40004FF0090C9EE700BF545047002032400080
:101B500000302040002853D02A4B02689A424DD1D1
:101B600030B4426892F91230D269002B11DB0124A3
:101B7000254D590903F01F0C203104FA0CF445F8E7
:101B80002140BFF34F8FBFF36F8F00241F4941F8EF
:101B9000234092F92430002B11DB01241A4D5909FE
:101BA00003F01F0C203104FA0CF445F82140BFF378
:101BB0004F8FBFF36F8F0024144941F8234092F9EF
:101BC0002530002B11DB01210F4C5A0903F01F0CAB
:101BD000203201FA0CF144F82210BFF34F8FBFF30B
:101BE0006F8F0021094A42F823100023D0E9022117
:101BF00030BC0360184691605363704707207047FC
:101C0000012070475450470000E100E0F80700222F
:101C10001E4A92F8263092F82420DBB202F00F021E
:101C2000A2F1080103292BD8DFE801F020160C02ED
:101C30001749184A51F82330A2FB03231B09164AFF
:101C4000136070471249134A51F82330A2FB032353
:101C5000114ADB08136070470D490E4A51F82330D2
:101C6000A2FB03230C4A9B08136070470849094AEA
:101C700051F82330A2FB0323074A5B081360704727
:101C8000034951F82330D340D9E700BF00E00140B9
:101C900010010022ABAAAAAA80090022704700BF47
:101CA000F8B54AF2035001235B495C4AA1F8FA03F4
:101CB000938093889BB2002BFBD101244FF400400A
:101CC0009FED516B9FED527B554B5649C3E9071170
:101CD0005961148083ED007F1861FFF799FF092295
:101CE00016214D4B83F8501A83F8A22093F8002C4C
:101CF0001AB993F8013C98077ED0474C94F8003C01
:101D0000002B6ED00022444B83F8012C83F8002C6A
:101D10000023414A82F8323092F83C301907FBD553
:101D200045F6017040F2111100233B4C1085A2F8DA
:101D30004C1082F82A3094F83C309B06FBD50422E4
:101D400001250526354B384F1A77276284F8245031
:101D500084F82660FFF75CFF2946962000F0D2F851
:101D6000002384F824302762FFF752FF294696208B
:101D700000F0C8F884F82660FFF74AFF4AF20152E3
:101D80002A4B1A80BFF35F8F1D72BFF35F8F4FF432
:101D90002541198084F8305084F8525084F853500B
:101DA00094F855301C4A43F0400384F8553092F8BB
:101DB0005530DB09FBD0C523022082F8540082F89D
:101DC000553092F85530144903F0BF0382F855306E
:101DD00091F85530DB09FBD14FF42543A1F8FA33D4
:101DE000F8BD0121C82084F8001C00F08BF894F89D
:101DF000003C012BFBD185E74FF47A70FFF74EFFD3
:101E000086E700BFAFF30080006CDC0200127A00AE
:101E100000800000002D310100E0014000C10140C0
:101E20001001002200389C1C322312310020004097
:101E300038B50025284C0121C82084F8285000F02E
:101E400061F884F8245094F82430002BFBD194F8E6
:101E50002430214943F0020384F8243091F82430DF
:101E6000C3F340009B07F9D41B4A81F8220092F883
:101E7000223003F0FF00002BF9D192F840301649D0
:101E800060F3C71382F8403091F84030DB09FBD192
:101E900091F84200104A63F3C71081F8420092F8AB
:101EA0004230DB09FBD192F844000B4963F3C710C1
:101EB00082F8440091F84430C3F3C014DB09F9D12F
:101EC000012000F0C7F8054B012083F84C4CBDE819
:101ED000384000F08FB800BF0020204000E00140F3
:101EE000034618B1024A00201A607047012070476B
:101EF00000000505FFFFFFFFA0F101000028FBD156
:101F0000704700BF1C4B1D4A1B6800FB01F1934248
:101F10000FD302F1854202F5071202F68342A2FBBB
:101F200003239B0CA3FB01314FF0FF30E1B1FFF71E
:101F3000E3BF4FF47A7210B4114C4FF0FF30B4FB92
:101F4000F3F3A1FB02C434B9BCFBF3F080B15DF83C
:101F5000044BFFF7D1BFB1FBF3F1A1FB0212002A42
:101F6000F5D1084620B1F2E71846002BDFD17047C3
:101F70005DF8044B704700BF8009002200127A0010
:101F800000CA9A3B70B500240D4B0E4EB3F80021E9
:101F9000B3F82051ADB2154025FA04F3DB0704D5A0
:101FA00056F82430E0B203B198470134102CF3D135
:101FB000034AA2F81051B2F820311D42FBD170BD86
:101FC00000C00040B00700220022602310B4074880
:101FD000074C30F8021F02F5C65C013209B144F823
:101FE0002C10013BF5D15DF8044B7047B62B000275
:101FF00000600040EFF31081012383F31088124B3F
:1020000033F8102092B22AB133F81020013A92B27C
:1020100023F8102033F810309BB293B90B4A10B458
:10202000B2F8FA330A4C9BB234F8100043F425435B
:1020300023EA0003A2F8FA3381F310885DF8044B19
:10204000704781F3108870477809002200E0014052
:10205000802C000230B4EFF31081012383F3108849
:102060000E4A32F810309BB26BB90D4C0D4DB4F8DE
:10207000FA3335F810C09BB243EA0C0343F425430E
:102080009BB2A4F8FA3332F8103001339BB222F835
:10209000103081F3108830BC704700BF78090022EF
:1020A00000E00140802C000200BE704708B500F03F
:1020B00003F8FEF7D9FEFEE770B5554B554D6B6141
:1020C000BFF34F8FBFF36F8F534A136843F004037E
:1020D0001360BFF34F8FBFF36F8F4FF0E022936811
:1020E00043F480339360BFF34F8FBFF36F8F4FF490
:1020F00070034A4CC5F888300020AC60FEF7D4FC71
:10210000FFF7CEFD0120FEF7CFFC2368A3F5806327
:1021100083F30A884248434A0021121A00F0A4F8C7
:102120004148424A4249121A00F0A6F84149424A3F
:102130004248521AD20842F009C800BFAFF30080EB
:10214000F1E80223E0E802230FF007C03C493D4AD2
:102150003D48521AD20842F009C800BFAFF30080D0
:10216000F1E80223E0E802230FF007C0374B384ABA
:102170000020D21A0021D20842F007C0AFF300803D
:10218000E3E802010FF005C0BFF34F8FBFF36F8F7D
:102190000024C5F85042BFF34F8FBFF36F8F2D4B14
:1021A0002D4D5B1BA34206DD9E1055F8043B013408
:1021B0009847A642F9DCFFF72BFDFFF739FE032015
:1021C000FFF748FF00234FF0100E1C464EF001E0D1
:1021D000224903F10C0221F8224001330FF007C815
:1021E0000320FFF707FF0320FFF734FF1C4B0320FA
:1021F0005C609C60DC601C61FFF7FCFE0220FEF767
:1022000053FCFFF7E1FEBDE87040002000F02AB863
:1022100001020E0000ED00E000E001E0000000021D
:102220004001002284090022000000221001002247
:10223000B42C0002C02C0002C02C000200000000E0
:10224000D02D0002D02D0002000000200000002050
:10225000000000200C01002208010022000D404077
:1022600000402040704700BF02440346934200D123
:10227000704703F8011BF9E70A44431E914200D15D
:10228000704710B511F8014B914203F8014FF9D195
:1022900010BD034613F8012B002AFBD1181A013890
:1022A0007047FFFF4275696C74207769746820522B
:1022B000656E6573617320416476616E6365642049
:1022C000466C657869626C6520536F6674776172DD
:1022D00065205061636B6167652076657273696F15
:1022E0006E20352E352E3000352E352E3000000074
:1022F00000000505F8B500BFF8BC08BC9E46704755
:10230000F8B500BFF8BC08BC9E4670475465726DB6
:10231000696E616C00000000284E554C4C2900008D
:102320000D0A2A2A2A2A2A2A2A2A2A2A2A2A2A2A4A
:102330002A2A2A2A2A2A2A2A2A2A2A2A2A2A2A2AFD
:102340002A2A2A2A2A2A2A2A2A2A2A2A2A2A2A2AED
:102350002A2A2A2A2A2A2A2A2A2A2A2A2A2A2A2ADD
:102360002A2A2A2A000000000D0A2A20202052656D
:102370006E6573617320465350204578616D706CB3
:10238000652050726F6A65637420666F7220725F99
:102390007363695F75617274204D6F64756C65203D
:1023A00020202020202020202020202A00000000A3
:1023B000312E30000D0A2A2020204578616D706C86
:1023C000652050726F6A6563742056657273696F19
:1023D0006E20257320202020202020202020202057
:1023E00020202020202020202020202020202020ED
:1023F0002020202020202A000D0A2A202020466CA0
:10240000657820536F667477617265205061636BE5
:102410002056657273696F6E202025642E25642E08
:102420002564202020202020202020202020202063
:1024300020202020202020202020202020202A00B2
:102440000D0A526566657220746F20726561646D55
:10245000652E7478742066696C6520666F72206DD5
:102460006F72652064657461696C73206F6E2045BE
:1024700078616D706C652050726F6A65637420615D
:102480006E640D0A46535020557365722773204DB4
:10249000616E75616C20666F72206D6F7265206968
:1024A0006E666F726D6174696F6E2061626F7574B4
:1024B00020725F7363695F756172742064726976FC
:1024C00065720D0A000000000D0A0D0A54686520AF
:1024D00070726F6A65637420696E697469616C6992
:1024E0007A65732074686520554152542077697469
:1024F0006820626175642072617465206F662031A6
:102500003135323030206270732E00000D0A4F706A
:10251000656E2053657269616C205465726D696ED9
:10252000616C2077697468207468697320626175D2
:102530006420726174652076616C756520616E64DB
:10254000000000000D0A50726F7669646520496EC4
:102550007075742072616E67696E672066726F6D48
:102560002031202D2031303020746F20736574208D
:102570004C454420496E74656E736974790D0A0088
:102580000D0A202A2A204750542054494D455220F4
:10259000494E4954204641494C4544202A2A200DA1
:1025A0000A0000000D0A52657475726E656420455C
:1025B00072726F7220436F64653A203078257820FC
:1025C000200D0A000D0A202A2A2047505420535477
:1025D000415254204641494C4544202A2A200D0AA4
:1025E000000000000D0A202A2A205541525420499B
:1025F0004E4954204641494C4544202A2A200D0A80
:10260000000000000D0A202A2A2055415254205073
:102610004320494E4954204641494C4544202A2AEA
:10262000200D0A006B6B6F6F6E6E6963686968617D
:102630000D0000000D0A202A2A2055415254302056
:102640004641494C4544202A75617274325F70726C
:10265000696E745F757365725F6D73672A200D0A0A
:10266000000000000D0A202A2A205541525420451E
:10267000502044656D6F204641494C4544202A2A2C
:10268000200D0A000D0A2A2A20525F4750545F5439
:10269000696D65724F70656E2041504920666169B1
:1026A0006C6564202A2A0D0A000000005B45525226
:1026B0005D20496E2046756E6374696F6E3A202501
:1026C0007328292C202573000D0A202A2A20525F06
:1026D0004750545F537461727420415049206661C1
:1026E000696C6564202A2A0D0A0000000D0A202A60
:1026F0002A20525F4750545F436C6F7365204150EE
:1027000049206661696C6564202A2A0D0A00000070
:102710000D0A2A2A2020525F5343495F55415254E3
:102720005F4F70656E20415049206661696C656439
:1027300020202A2A0D0A00000D0A2A2A2020525F92
:102740005343495F554152545F5772697465204144
:102750005049204661696C656420202A2A0D0A00D0
:102760000D0A2A2A202055415254204572726F7258
:10277000204576656E7420526563656976656420D0
:10278000202A2A0D0A0000000D0A2A2A2020525F62
:102790005343495F554152545F436C6F7365204109
:1027A0005049206661696C656420202A2A200D0A40
:1027B000000000000D0A2A2A2020525F53434932AC
:1027C0005F554152545F4F70656E204150492066FD
:1027D00061696C656420202A2A0D0A000D0A202AEE
:1027E0002A205541525430204641494C4544202A24
:1027F00075617274305F7072696E745F7573657243
:102800005F6D73672A200D0A00FFFFFFFFFFFFFFC8
:1028100000000000000054545220524547474553E1
:1028200000FFFFFFFFFFFFFF303132333435363713
:10283000383941424344454674696D65725F67703B
:10284000745F6465696E697400FFFFFF6770745F91
:10285000737461727400FFFF6770745F696E6974EE
:1028600069616C697A6500FF6465696E69745F759A
:1028700061727400756172745F7072696E745F75F5
:102880007365725F6D736700756172745F696E69FD
:102890007469616C697A65006465696E69745F70FA
:1028A000635F7561727400FF756172745F70726945
:1028B0006E745F70635F6D736700FFFF75617274A4
:1028C0005F70635F696E697400FFFFFF02000000C4
:1028D000E803000000000000F401000000FFDF003A
:1028E0000000000000000000EC28000200000100D1
:1028F00000000000000000000000000000000000D8
:102900000000000000000000000000000000FFFFC9
:10291000DFDF0000000000000000000000000000F9
:102920000000000000000000000200000C000C018C
:102930000C020C030000000000000000350C000237
:1029400000000000482900020001000000010022F0
:102950000F00FFFF00000001010000000202000064
:102960000C080C090C0A0C0B000000000000000011
:10297000190E0002000000007C2900020001000086
:10298000040100220F00FFFF000000010100000011
:10299000430000009C29000200000000000000002D
:1029A0000000000000800000020000000080000025
:1029B0000300000000800000040000000080000010
:1029C000050000000080000007000000004000003B
:1029D0000800000000400000090000000080000026
:1029E0000B000000008000000E00000000800000CE
:1029F0000F0000000000011C000100000000011C8D
:102A0000010100000000011C020100000000011C87
:102A1000030100000000011C040100000000011C73
:102A2000050100000000011C060100000400000078
:102A300007010000000001170C0100000000011751
:102A40000E0100000000010008020000000001006B
:102A500009020000000001000A020000000001005D
:102A60000B02000000000117000300000000011726
:102A7000010300000000011702030000000001171D
:102A80000303000000000117040300000000011709
:102A900005030000000001170603000000000117F5
:102AA00007030000000001170803000000000105F3
:102AB00009030000000001050A03000000000105F1
:102AC00000040000000001050104000000000113E3
:102AD00007040000000001140804000000000114B5
:102AE00009040000000401060A04000000040106B5
:102AF0000B040000000001060C04000000040106A5
:102B00000D040000000001030E040000000001138A
:102B1000000500000000011301050000000401078A
:102B20000B050000000401070C0500000400000074
:102B30000006000000000104090600000000010476
:102B40000A0600000000011C000800000000011C33
:102B5000010800000000011C020800000000011C28
:102B6000030800000000011C040800000000011C14
:102B7000080800000400000009080000000001131C
:102B80000E080000000001130F08000000000104FF
:102B9000020A000000000104030A0000000C010505
:102BA0000E0A0000000C01050F0A0000000C0114C1
:102BB000010B0000FFFFFFFF240125012601270173
:102BC0002B012C012D012E0132013301340135017D
:102BD00000000000000000000000000000000000F5
:102BE00000000000000000000000000000000000E5
:102BF00000000000000000000000000000000000D5
:102C000000000000000000000000000000000000C4
:102C100000000000000000000000000000000000B4
:102C200000000000000000000000000000000000A4
:102C30000000000000000000000000000000000094
:102C40000000000000000000000000000000000084
:102C50000000000000000000000000000000000074
:102C60000000000000000000000000000000000064
:102C70000000000000000000020403040404FFFF41
:102C80000100020008001000100000000000000019
:102C9000017A5200027C0E011B0C0D001000000096
:102CA00018000000EEF5FFFF10000000000000001B
:042CB0000000000020
:102CB4000D00000000000000000000000000000003
:102CC4000000000000000000000000000000000000
:102CD40000000000000000000000000000000000F0
:102CE40000000000000000000000000000000000E0
:102CF40000000000000000000000000000000000D0
:102D040000000000000000000000000000000000BF
:102D140000000000000000000000000000000000AF
:102D2400000000000000000000000000000000009F
:102D3400000000000000000000000000000000008F
:102D4400000000000000000000000000000000007F
:102D5400000000000000000000000000000000006F
:102D6400000000000000000000000000000000005F
:102D7400000000000000000000000000000000004F
:102D8400000000000000000000000000000000003F
:102D9400000000000000000000000000000000002F
:102DA400000000000000000000000000000000001F
:102DB40010400000104000002D0200020502000235
:020000040300F7
:10A10000FFFFFFFFFFFFFFFFFFFFFFFFFFFFFFFF5F
:04A11000FFFFFFFF4F
:04A13400FFFFFFFF2B
:10A20000FFFFFFFFFFFFFFFFFFFFFFFFFFFFFFFF5E
:10A21000FFFFFFFFFFFFFFFFFFFFFFFFFFFFFFFF4E
:10A22000FFFFFFFFFFFFFFFFFFFFFFFFFFFFFFFF3E
:10A23000FFFFFFFFFFFFFFFFFFFFFFFFFFFFFFFF2E
:10A24000FFFFFFFFFFFFFFFFFFFFFFFFFFFFFFFF1E
:10A25000FFFFFFFFFFFFFFFFFFFFFFFFFFFFFFFF0E
:10A26000FFFFFFFFFFFFFFFFFFFFFFFFFFFFFFFFFE
:10A27000FFFFFFFFFFFFFFFFFFFFFFFFFFFFFFFFEE
:10A2800000000000FFFFFFFFFFFFFFFFFFFFFFFFDA
:10A29000FFFFFFFFFFFFFFFFFFFFFFFFFFFFFFFFCE
:10A2A000FFFFFFFFFFFFFFFFFFFFFFFFFFFFFFFFBE
:10A2B000FFFFFFFFFFFFFFFFFFFFFFFFFFFFFFFFAE
:10A2C000FFFFFFFFFFFFFFFFFFFFFFFFFFFFFFFF9E
:020000042703D0
:04000005020020AD28
:00000001FF
